:04000000E6EF05F032
:08000800046ED8CF05F0E0CF33
:1000100006F00001E9CF0CF0EACF07F0E1CF08F0DD
:10002000E2CF09F0D9CF0AF0DACF0BF0F3CF12F01C
:10003000F4CF13F0FACF14F0F5CF15F0F6CF16F099
:10004000F7CF17F000C00EF001C00FF002C010F0A3
:1000500003C011F0A3A030EF00F0A4B0BCEF02F099
:100060000EC000F00FC001F010C002F011C003F08C
:100070000CC0E9FF07C0EAFF078E08C0E1FF09C016
:10008000E2FF0AC0D9FF0BC0DAFF12C0F3FF13C0B2
:10009000F4FF14C0FAFF15C0F5FF16C0F6FF17C035
:1000A000F7FF045006C0E0FF05C0D8FF10009A6BB0
:1000B000996B986B976B95C09CF094C09BF096538E
:1000C000D8B489D09BC0E9FF9CC0EAFF9A6B996BBA
:1000D000986BEFCF97F09B51D8B49C079B079BC0C0
:1000E000E9FF9CC0EAFFEF509F6B9E6B9D6F006A1B
:1000F000005097139D5198139E5199139F519A1335
:100100009B51D8B49C079B079BC0E9FF9CC0EAFFAA
:10011000EF50A06B9F6B9E6B9D6F030E9D179E6BA8
:100120009F6BA06B006A016A0050971301509813EF
:100130009D5199139E519A139BC0E9FF9CC0EAFF01
:10014000EF50A06B9F6B9E6B9D6FE00E9D179E6B9B
:100150009F6BA06B006A9D35016E9E35026E9F35C8
:10016000036E013602360336013602360336013697
:1001700002360336013602360336E00E0116005011
:100180009713015098130250991303509A139B51DF
:10019000D8B49C079B079BC0E9FF9CC0EAFFEF50C7
:1001A0009E6B9D6F006A016A9D35026E9E35036EDF
:1001B000023603360236033602360336023603367B
:1001C000E00E021600509713015098130250991335
:1001D00003509A1353D0020E9B5F000E9C5B9BC092
:1001E000E9FF9CC0EAFFEF50A06B9F6B9E6B9D6F79
:1001F000E00E9D179E6B9F6BA06BA0319A6F9F3195
:10020000996F9E31986F9D31976F9A3399339833D8
:1002100097339A339933983397339A339933983382
:1002200097339A33993398339733070E9A179B5124
:10023000D8B49C079B079BC0E9FF9CC0EAFFEF5026
:10024000A06B9F6B9E6B9D6F9D35006E9E35016E02
:100250009F35026EA035036E003601360236033636
:100260000036013602360336F80E0016005097139A
:10027000015098130250991303509A1397C000F03D
:1002800098C001F099C002F09AC003F012009C538C
:1002900052E096C0E9FF97C0EAFF98C0EFFF965181
:1002A000D8B49707960796C0E9FF97C0EAFF99C0B0
:1002B000EFFF9651D8B49707960796C0E9FF97C00D
:1002C000EAFF9A51030BEF6E96C0E9FF97C0EAFF71
:1002D0009AC000F0003600360036F80E00160050C6
:1002E000E00BEF10EF6E96C0E9FF97C0EAFFEF500A
:1002F0000809EF6E9651D8B49707960796C0E9FFA4
:1003000097C0EAFF9AC000F0003A0032070E0016CC
:100310000050070BEF6E96C0E9FF97C0EAFF9BC045
:1003200000F0003600360036F80E00160050F80BCC
:10033000EF10EF6E3FD096C0E9FF97C0EAFFEF6A7B
:100340009651D8B49707960796C0E9FF97C0EAFF81
:10035000EF6A9651D8B49707960796C0E9FF97C001
:10036000EAFF98C000F0003A0036E00E0016005098
:10037000E00BEF6E9651D8B49707960796C0E9FF49
:1003800097C0EAFF98C000F00032003200321F0E22
:10039000001600501F0BEF6E96C0E9FF97C0EAFFF2
:1003A00099C000F0003A0036E00E00160050E00B55
:1003B000EF10EF6E12000F0E946F660E936F0F0129
:1003C00040B70FD01B5205E1F10E6F1408096F6E94
:1003D00004D0E00E77140309776E0001956B89D085
:1003E0000F0130B710D01B5205E1F10E6F14060952
:1003F0006F6E04D0E00E77140409776E010E0001D1
:10040000956F77D00F0120B70FD01B5205E1F10E89
:100410006F1404096F6E04D0E00E77140509776E2F
:10042000020E0001956F65D00E0120B70ED00D01B0
:10043000F8B502D00E0109D0E00E77141209776EDC
:10044000030E0001956F55D00E0130B70ED00D018F
:10045000F8B702D00E0109D0E00E77141309776EB9
:10046000040E0001956F45D00E0140B70ED00D016E
:10047000F8B902D00E0109D0E00E77141409776E96
:10048000050E0001956F35D00E0150B70ED00D014D
:10049000F8BB02D00E0109D0E00E77141509776E73
:1004A000060E0001956F25D00E0160B70ED00D012C
:1004B000F8BD02D00E0109D0E00E77141609776E50
:1004C000070E0001956F15D00E0170B70ED00D010B
:1004D000F8BF02D00E0109D0E00E77141709776E2D
:1004E000080E0001956F05D00E01000E016E42D07E
:1004F00000018F51030B006EFC0E60140010606E43
:100500000F0E976F640E966F8BC09BF08AC09AF0A7
:1005100089C099F088C098F090C09CF0B8DE8EC079
:1005200065FF659C91B1658C926B8E51925D14E272
:100530008CC0E9FF8DC0EAFFEFCF98F094C0EAFFCE
:1005400093C0E9FF98C0EFFF932BD8B4942B8C2B6A
:10055000D8B48D2B922BE9D760861B5204E1F10EA3
:100560006F146F6E04D0E00E77141009776E010ED1
:10057000016E0E0100011200F29CF29EF2BEFDD748
:10058000A390736B746B756B766B776B786B796B11
:100590007A6B080E7B6F896B730E886F60AE1FD00D
:1005A0001B5204E1F10E6F146F6E04D0E00E77144D
:1005B0001009776E7E6B1B5208E07C9174BC7C81C5
:1005C000749C60501F0B7D6F09D07C9174BE7C8140
:1005D000749E60A403D07D6B60B07D2BC2D00F01F0
:1005E00050AF24D01B5205E1F10E6F140A096F6E53
:1005F00004D0E00E77141109776E010E00017E6FB2
:100600001B520AE07C9174BC7C81749C0F01505198
:100610001F0B00017D6F09D07C9174BC7C81749CA0
:100620000F015051070B00017D6F9BD00E0120AFD1
:1006300017D00D01F8A502D00E0112D0E00E7714EC
:100640001209776E020E00017E6F7C9174BC7C8172
:10065000749C0E0120511F0B00017D6F82D00E0192
:1006600030AF17D00D01F8A702D00E0112D0E00E66
:1006700077141309776E030E00017E6F7C9174BCB2
:100680007C81749C0E0130511F0B00017D6F69D07D
:100690000E0140AF17D00D01F8A902D00E0112D003
:1006A000E00E77141409776E040E00017E6F7C91C2
:1006B00074BC7C81749C0E0140511F0B00017D6F46
:1006C00050D00E0150AF17D00D01F8AB02D00E0183
:1006D00012D0E00E77141509776E050E00017E6FBB
:1006E0007C9174BC7C81749C0E0150511F0B0001E5
:1006F0007D6F37D00E0160AF17D00D01F8AD02D07D
:100700000E0112D0E00E77141609776E060E000166
:100710007E6F7C9174BC7C81749C0E0160511F0BB8
:1007200000017D6F1ED00E0170AF17D00D01F8AF24
:1007300002D00E0112D0E00E77141709776E070E63
:1007400000017E6F7C9174BC7C81749C0E017051A1
:100750001F0B00017D6F05D00E01000E016E84D0CD
:10076000000165500F0B7B6F7F9165BC7F817F938C
:1007700062B67F83000E7FB3010E8D6F0F0E956FF3
:10078000640E946F8DC096F092DC03C072F002C0CC
:1007900071F001C070F000C06FF00F0E8C6F660E2C
:1007A0008B6F8A6B7B518A5D14E28BC0E9FF8CC032
:1007B000EAFFEFCF8FF089C0EAFF88C0E9FF8FC062
:1007C000EFFF882BD8B4892B8B2BD8B48C2B8A2B9A
:1007D000E9D77E510FE0010A14E0030A17E0010A8D
:1007E0001AE0070A1DE0010A20E0030A23E0010ADB
:1007F00026E029D0609E1B5202E0A49201D0A49072
:1008000022D00F01509FA49200011DD00E01209F05
:10081000A492000118D00E01309FA492000113D0C1
:100820000E01409FA49200010ED00E01509FA49291
:10083000000109D00E01609FA492000104D00E01B6
:10084000709FA49200017F95A4BE7F85A49E1B5239
:1008500004E1F10E6F146F6E04D0E00E77141009EE
:10086000776E010E016E0E0101520CE000016F5116
:10087000030807E1705305E1715303E1725301E18D
:1008800021800E01218021A020D00001806B816B8E
:10089000826B836B846B856B866B876B010E806FBD
:1008A000816F826F836F846F8B6B8A6B896B020E93
:1008B000886F8D6B800E8C6F080E8E6F110E8F6F90
:1008C000906B916B78DD21900E01C00EF212A38027
:1008D000A490000130EF00F05538700B006ED890F6
:1008E00000361F0E6F1400106F6E6ECF00F0003ACE
:1008F0000030070B555CF9E11200C00E7014706EE9
:100900003F0E70148009706EF80E7114716EC70E70
:1009100071142009716E719C718EF80E72140209A7
:10092000726E728C98EF04F0040E556ED5DFE5D729
:100930001B6A606A9F0E6014606E608460CF50FF17
:10094000739A7398739E739C196AF2BE198EF29E05
:100950000F0E976F1B0E966F9B6B9A6B996B986B34
:100960009C6B95DC19BEF28E196AF2BE198EF29E4E
:100970000F0E976F1F0E966F9B6B9A6B996B986B10
:100980009C6B85DC19BEF28E196AF2BE198EF29E3E
:100990000F0E976F030E966F9B6B9A6B996B986B0C
:1009A0009C6B75DC19BEF28E196AF2BE198EF29E2E
:1009B0000F0E976F070E966F9B6B9A6B996B986BE8
:1009C0009C6B65DC19BEF28E196AF2BE198EF29E1E
:1009D0000F0E976F0B0E966F9B6B9A6B996B986BC4
:1009E0009C6B55DC19BEF28E196AF2BE198EF29E0E
:1009F0000F0E976F966F9B6B9A6B996B986B9C6BB6
:100A000046DC19BEF28E196AF2BE198EF29E0F0EE6
:100A1000976F130E966F9B6B9A6B996B986B9C6B91
:100A200036DC19BEF28E196AF2BE198EF29E0F0ED6
:100A3000976F170E966F9B6B9A6B996B986B9C6B6D
:100A400026DC19BEF28E196AF2BE198EF29E0D0EC8
:100A5000976F630E966F9B6B9A6B996B986B9C6B01
:100A600016DC19BEF28E196AF2BE198EF29E0D0EB8
:100A7000976F670E966F9B6B9A6B996B986B9C6BDD
:100A800006DC19BEF28E196AF2BE198EF29E0D0EA8
:100A9000976F6B0E966F9B6B9A6B996B986B9C6BB9
:100AA00047EC01F019BEF28E196AF2BE198EF29E61
:100AB0000D0E976F730E966F9B6B9A6B996B986B7D
:100AC0009C6B47EC01F019BEF28E196AF2BE198ECA
:100AD000F29E0D0E976F770E966F9B6B9A6B996BCC
:100AE000986B9C6B47EC01F019BEF28E196AF2BE4E
:100AF000198EF29E0D0E976F7B0E966F9B6B9A6B05
:100B0000996B986B9C6B47EC01F019BEF28E196AD9
:100B1000F2BE198EF29E0D0E976F830E966F9B6B31
:100B20009A6B996B986B9C6B47EC01F019BEF28E37
:100B3000196AF2BE198EF29E0D0E976F870E966F90
:100B40009B6B9A6B996B986B9C6B47EC01F019BE91
:100B5000F28E196AF2BE198EF29E0D0E976F8B0EF1
:100B6000966F9B6B9A6B996B986B9C6B47EC01F043
:100B700019BEF28E196AF2BE198EF29E0D0E976F93
:100B8000930E966F9B6B9A6B996B986B9C6B47EC73
:100B900001F019BEF28E9350FB0B0809936E556A53
:100BA0009BDE2AEF06F0EA6A560EE96EEF500DE082
:100BB000060E016E006A002EFED7012EFBD77B0EBB
:100BC000006E002EFED7EF2EF3D71200F86AD09EEB
:100BD000078E1C6A1D6A1E6A1F6A206A2190C15016
:100BE000C00B0F09C16E226A236A246A256A266A2D
:100BF000276A286A296A2B6A2A6A2D6A2C6A2F6A50
:100C00002E6A316A306A336A326A356A346A376A00
:100C1000366A396A386A3B6A3A6A3D6A3C6A3E6AB1
:100C20003F6A406A416A426A436A3F0E926E080E0A
:100C3000936E800E946EC050C00B0709C06EC09EAC
:100C4000C280C69A949A94889496010EC66E000E3D
:100C5000C76E6AD6040E556E3FDE196AF2BE198E53
:100C6000F29E0F0E976F1B0E966F9B6B9A6B070E83
:100C7000996F98699C6B47EC01F019BEF28E196A66
:100C8000F2BE198EF29E0F0E976F030E966F9B6B3E
:100C90009A6B996B986F9C6B47EC01F019BEF28EC2
:100CA000556A1ADEC00EF212A380F28AD768B30E1C
:100CB000D66E0A0E556E820E566E75DF552EFBD718
:100CC000486A496A4A6A4B6A4C6A4D6A4E6A4F6A78
:100CD000080E506E896B480E886F60AE1FD01B5295
:100CE00004E1F10E6F146F6E04D0E00E771410095A
:100CF000776E536A1B5208E0519074BC5180749C0B
:100D000060501F0B526E09D0519074BE5180749E7A
:100D100060A403D0526A60B0522AABD00F0150AF2A
:100D20001FD01B5205E1F10E6F140A096F6E04D03B
:100D3000E00E77141109776E010E536E1B5208E016
:100D4000519074BC5180749C50511F0B526E07D04F
:100D5000519074BC5180749C5051070B526E88D0D6
:100D60000E0120AF14D00D01F8A502D00E010FD056
:100D7000E00E77141209776E020E536E519074BC18
:100D80005180749C0E0120511F0B526E71D030AFF8
:100D900014D00D01F8A702D00E010FD0E00E771489
:100DA0001309776E030E536E519074BC5180749C7E
:100DB0000E0130511F0B526E5BD040AF14D00D01AD
:100DC000F8A902D00E010FD0E00E77141409776E47
:100DD000040E536E519074BC5180749C0E014051AE
:100DE0001F0B526E45D050AF14D00D01F8AB02D09E
:100DF0000E010FD0E00E77141509776E050E536EB5
:100E0000519074BC5180749C0E0150511F0B526E56
:100E10002FD060AF14D00D01F8AD02D00E010FD06D
:100E2000E00E77141609776E060E536E519074BC5F
:100E30005180749C0E0160511F0B526E19D070AF1F
:100E400014D00D01F8AF02D00E010FD0E00E7714D0
:100E50001709776E070E536E519074BC5180749CC5
:100E60000E0170511F0B526E03D0000E016E85D023
:100E7000000165500F0B506E549065BC5480549225
:100E800062B65482000E54B2010E8D6F0F0E956F34
:100E9000640E946F8DC096F057EC00F003C047F0DD
:100EA00002C046F001C045F000C044F00F0E8C6F48
:100EB000660E8B6F8A6B50508A5D14E28BC0E9FF1F
:100EC0008CC0EAFFEFCF8FF089C0EAFF88C0E9FF4E
:100ED0008FC0EFFF882BD8B4892B8B2BD8B48C2BE9
:100EE0008A2BE9D753500FE0010A14E0030A17E0F8
:100EF000010A1AE0070A1DE0010A20E0030A23E0C4
:100F0000010A26E029D0609E1B5202E0A49201D083
:100F1000A49022D00F01509FA49200011DD00E0179
:100F2000209FA492000118D00E01309FA4920001CE
:100F300013D00E01409FA49200010ED00E01509FCD
:100F4000A492000109D00E01609FA492000104D078
:100F50000E01709FA49200015494A4BE5484A49ED8
:100F60001B5204E1F10E6F146F6E04D0E00E771483
:100F70001009776E010E016E0E0101521FE0010E85
:100F8000486E496E4A6E4B6E4C6E4D6E196AF2BEDB
:100F9000198EF29E00018B6B8A6B896B010E886F34
:100FA0008D6B480E8C6F080E8E6F110E8F6F906BCD
:100FB000916BDBEC01F019BEF28E0E0194988B78E8
:0C0FC0000A0E566E0001EFDD7BD6030028
:020000040030CA
:0E00000000C2181E008691000FC00FE00F40D6
:00000001FF
;PIC18F2580
;CRC=A612  CREATED="24-feb.-25 18:06"
